import * as AccessList from './AccessList.js';
import * as Blobs from './Blobs.js';
import type * as Errors from './Errors.js';
import * as Hash from './Hash.js';
import * as Hex from './Hex.js';
import type { Assign, Compute, PartialBy, UnionPartialBy } from './internal/types.js';
import * as Rlp from './Rlp.js';
import * as Signature from './Signature.js';
import * as TransactionEnvelope from './TransactionEnvelope.js';
import * as TransactionEnvelopeEip1559 from './TransactionEnvelopeEip1559.js';
export type TransactionEnvelopeEip4844<signed extends boolean = boolean, bigintType = bigint, numberType = number, type extends string = Type> = Compute<TransactionEnvelope.Base<type, signed, bigintType, numberType> & {
    /** EIP-2930 Access List. */
    accessList?: AccessList.AccessList | undefined;
    /** Versioned hashes of blobs to be included in the transaction. */
    blobVersionedHashes: readonly Hex.Hex[];
    /** Maximum total fee per gas sender is willing to pay for blob gas (in wei). */
    maxFeePerBlobGas?: bigintType | undefined;
    /** Total fee per gas in wei (gasPrice/baseFeePerGas + maxPriorityFeePerGas). */
    maxFeePerGas?: bigintType | undefined;
    /** Max priority fee per gas (in wei). */
    maxPriorityFeePerGas?: bigintType | undefined;
    /** The sidecars associated with this transaction. When defined, the envelope is in the "network wrapper" format. */
    sidecars?: readonly Blobs.BlobSidecar<Hex.Hex>[] | undefined;
}>;
export type Rpc<signed extends boolean = boolean> = TransactionEnvelopeEip4844<signed, Hex.Hex, Hex.Hex, '0x3'>;
export type Serialized = `${SerializedType}${string}`;
export declare const serializedType: "0x03";
export type SerializedType = typeof serializedType;
export type Signed = TransactionEnvelopeEip4844<true>;
export declare const type: "eip4844";
export type Type = 'eip4844';
/**
 * Asserts a {@link ox#TransactionEnvelopeEip4844.TransactionEnvelopeEip4844} is valid.
 *
 * @example
 * ```ts twoslash
 * import { TransactionEnvelopeEip4844, Value } from 'ox'
 *
 * TransactionEnvelopeEip4844.assert({
 *   blobVersionedHashes: [],
 *   chainId: 1,
 *   to: '0x0000000000000000000000000000000000000000',
 *   value: Value.fromEther('1'),
 * })
 * // @error: EmptyBlobVersionedHashesError: Blob versioned hashes must not be empty.
 * ```
 *
 * @param envelope - The transaction envelope to assert.
 */
export declare function assert(envelope: PartialBy<TransactionEnvelopeEip4844, 'type'>): void;
export declare namespace assert {
    type ErrorType = TransactionEnvelopeEip1559.assert.ErrorType | Hex.size.ErrorType | Hex.toNumber.ErrorType | Hex.slice.ErrorType | Blobs.EmptyBlobVersionedHashesError | Blobs.InvalidVersionedHashSizeError | Blobs.InvalidVersionedHashVersionError | Errors.GlobalErrorType;
}
/**
 * Deserializes a {@link ox#TransactionEnvelopeEip4844.TransactionEnvelopeEip4844} from its serialized form.
 *
 * @example
 * ```ts twoslash
 * import { TransactionEnvelopeEip4844 } from 'ox'
 *
 * const envelope = TransactionEnvelopeEip4844.deserialize('0x03ef0182031184773594008477359400809470997970c51812dc3a010c7d01b50e0d17dc79c8880de0b6b3a764000080c0')
 * // @log: {
 * // @log:   blobVersionedHashes: [...],
 * // @log:   type: 'eip4844',
 * // @log:   nonce: 785n,
 * // @log:   maxFeePerGas: 2000000000n,
 * // @log:   gas: 1000000n,
 * // @log:   to: '0x70997970c51812dc3a010c7d01b50e0d17dc79c8',
 * // @log:   value: 1000000000000000000n,
 * // @log: }
 * ```
 *
 * @param serialized - The serialized transaction.
 * @returns Deserialized Transaction Envelope.
 */
export declare function deserialize(serialized: Serialized): Compute<TransactionEnvelopeEip4844>;
export declare namespace deserialize {
    type ErrorType = Errors.GlobalErrorType;
}
/**
 * Converts an arbitrary transaction object into an EIP-4844 Transaction Envelope.
 *
 * @example
 * ```ts twoslash
 * // @noErrors
 * import { Blobs, TransactionEnvelopeEip4844, Value } from 'ox'
 * import { kzg } from './kzg'
 *
 * const blobs = Blobs.from('0xdeadbeef')
 * const blobVersionedHashes = Blobs.toVersionedHashes(blobs, { kzg })
 *
 * const envelope = TransactionEnvelopeEip4844.from({
 *   chainId: 1,
 *   blobVersionedHashes,
 *   maxFeePerBlobGas: Value.fromGwei('3'),
 *   maxFeePerGas: Value.fromGwei('10'),
 *   maxPriorityFeePerGas: Value.fromGwei('1'),
 *   to: '0x0000000000000000000000000000000000000000',
 *   value: Value.fromEther('1'),
 * })
 * ```
 *
 * @example
 * ### Attaching Signatures
 *
 * It is possible to attach a `signature` to the transaction envelope.
 *
 * ```ts twoslash
 * // @noErrors
 * import { Blobs, Secp256k1, TransactionEnvelopeEip4844, Value } from 'ox'
 * import { kzg } from './kzg'
 *
 * const blobs = Blobs.from('0xdeadbeef')
 * const sidecars = Blobs.toSidecars(blobs, { kzg })
 * const blobVersionedHashes = Blobs.sidecarsToVersionedHashes(sidecars)
 *
 * const envelope = TransactionEnvelopeEip4844.from({
 *   blobVersionedHashes,
 *   chainId: 1,
 *   maxFeePerBlobGas: Value.fromGwei('3'),
 *   maxFeePerGas: Value.fromGwei('10'),
 *   maxPriorityFeePerGas: Value.fromGwei('1'),
 *   to: '0x0000000000000000000000000000000000000000',
 *   value: Value.fromEther('1'),
 * })
 *
 * const signature = Secp256k1.sign({
 *   payload: TransactionEnvelopeEip4844.getSignPayload(envelope),
 *   privateKey: '0x...',
 * })
 *
 * const envelope_signed = TransactionEnvelopeEip4844.from(envelope, { // [!code focus]
 *   sidecars, // [!code focus]
 *   signature, // [!code focus]
 * }) // [!code focus]
 * // @log: {
 * // @log:   blobVersionedHashes: [...],
 * // @log:   chainId: 1,
 * // @log:   maxFeePerBlobGas: 3000000000n,
 * // @log:   maxFeePerGas: 10000000000n,
 * // @log:   maxPriorityFeePerGas: 1000000000n,
 * // @log:   to: '0x0000000000000000000000000000000000000000',
 * // @log:   type: 'eip4844',
 * // @log:   value: 1000000000000000000n,
 * // @log:   r: 125...n,
 * // @log:   s: 642...n,
 * // @log:   yParity: 0,
 * // @log: }
 * ```
 *
 * @example
 * ### From Serialized
 *
 * It is possible to instantiate an EIP-4844 Transaction Envelope from a {@link ox#TransactionEnvelopeEip4844.Serialized} value.
 *
 * ```ts twoslash
 * import { TransactionEnvelopeEip4844 } from 'ox'
 *
 * const envelope = TransactionEnvelopeEip4844.from('0x03f858018203118502540be4008504a817c800809470997970c51812dc3a010c7d01b50e0d17dc79c8880de0b6b3a764000080c08477359400e1a001627c687261b0e7f8638af1112efa8a77e23656f6e7945275b19e9deed80261')
 * // @log: {
 * // @log:   blobVersionedHashes: [...],
 * // @log:   chainId: 1,
 * // @log:   maxFeePerGas: 10000000000n,
 * // @log:   to: '0x0000000000000000000000000000000000000000',
 * // @log:   type: 'eip4844',
 * // @log:   value: 1000000000000000000n,
 * // @log: }
 * ```
 *
 * @param envelope - The transaction object to convert.
 * @param options - Options.
 * @returns An EIP-4844 Transaction Envelope.
 */
export declare function from<const envelope extends UnionPartialBy<TransactionEnvelopeEip4844, 'type'> | Serialized, const signature extends Signature.Signature | undefined = undefined>(envelope: envelope | UnionPartialBy<TransactionEnvelopeEip4844, 'type'> | Serialized, options?: from.Options<signature>): from.ReturnType<envelope, signature>;
export declare namespace from {
    type Options<signature extends Signature.Signature | undefined = undefined> = {
        signature?: signature | Signature.Signature | undefined;
    };
    type ReturnType<envelope extends UnionPartialBy<TransactionEnvelopeEip4844, 'type'> | Hex.Hex = TransactionEnvelopeEip4844 | Hex.Hex, signature extends Signature.Signature | undefined = undefined> = Compute<envelope extends Hex.Hex ? TransactionEnvelopeEip4844 : Assign<envelope, (signature extends Signature.Signature ? Readonly<signature> : {}) & {
        readonly type: 'eip4844';
    }>>;
    type ErrorType = deserialize.ErrorType | assert.ErrorType | Errors.GlobalErrorType;
}
/**
 * Returns the payload to sign for a {@link ox#TransactionEnvelopeEip4844.TransactionEnvelopeEip4844}.
 *
 * @example
 * The example below demonstrates how to compute the sign payload which can be used
 * with ECDSA signing utilities like {@link ox#Secp256k1.(sign:function)}.
 *
 * ```ts twoslash
 * // @noErrors
 * import { Blobs, Secp256k1, TransactionEnvelopeEip4844 } from 'ox'
 * import { kzg } from './kzg'
 *
 * const blobs = Blobs.from('0xdeadbeef')
 * const blobVersionedHashes = Blobs.toVersionedHashes(blobs, { kzg })
 *
 * const envelope = TransactionEnvelopeEip4844.from({
 *   blobVersionedHashes,
 *   chainId: 1,
 *   nonce: 0n,
 *   maxFeePerGas: 1000000000n,
 *   gas: 21000n,
 *   to: '0x70997970c51812dc3a010c7d01b50e0d17dc79c8',
 *   value: 1000000000000000000n,
 * })
 *
 * const payload = TransactionEnvelopeEip4844.getSignPayload(envelope) // [!code focus]
 * // @log: '0x...'
 *
 * const signature = Secp256k1.sign({ payload, privateKey: '0x...' })
 * ```
 *
 * @param envelope - The transaction envelope to get the sign payload for.
 * @returns The sign payload.
 */
export declare function getSignPayload(envelope: TransactionEnvelopeEip4844): getSignPayload.ReturnType;
export declare namespace getSignPayload {
    type ReturnType = Hex.Hex;
    type ErrorType = hash.ErrorType | Errors.GlobalErrorType;
}
/**
 * Hashes a {@link ox#TransactionEnvelopeEip4844.TransactionEnvelopeEip4844}. This is the "transaction hash".
 *
 * @example
 * ```ts twoslash
 * // @noErrors
 * import { Blobs, TransactionEnvelopeEip4844 } from 'ox'
 * import { kzg } from './kzg'
 *
 * const blobs = Blobs.from('0xdeadbeef')
 * const blobVersionedHashes = Blobs.toVersionedHashes(blobs, { kzg })
 *
 * const envelope = TransactionEnvelopeEip4844.from({
 *   blobVersionedHashes,
 *   chainId: 1,
 *   nonce: 0n,
 *   maxFeePerGas: 1000000000n,
 *   gas: 21000n,
 *   to: '0x70997970c51812dc3a010c7d01b50e0d17dc79c8',
 *   value: 1000000000000000000n,
 * })
 *
 * const hash = TransactionEnvelopeEip4844.hash(envelope) // [!code focus]
 * ```
 *
 * @param envelope - The EIP-4844 Transaction Envelope to hash.
 * @param options - Options.
 * @returns The hash of the transaction envelope.
 */
export declare function hash<presign extends boolean = false>(envelope: TransactionEnvelopeEip4844<presign extends true ? false : true>, options?: hash.Options<presign>): hash.ReturnType;
export declare namespace hash {
    type Options<presign extends boolean = false> = {
        /** Whether to hash this transaction for signing. @default false */
        presign?: presign | boolean | undefined;
    };
    type ReturnType = Hex.Hex;
    type ErrorType = Hash.keccak256.ErrorType | serialize.ErrorType | Errors.GlobalErrorType;
}
/**
 * Serializes a {@link ox#TransactionEnvelopeEip4844.TransactionEnvelopeEip4844}.
 *
 * @example
 * ```ts twoslash
 * // @noErrors
 * import { Blobs, TransactionEnvelopeEip4844 } from 'ox'
 * import { kzg } from './kzg'
 *
 * const blobs = Blobs.from('0xdeadbeef')
 * const blobVersionedHashes = Blobs.toVersionedHashes(blobs, { kzg })
 *
 * const envelope = TransactionEnvelopeEip4844.from({
 *   blobVersionedHashes,
 *   chainId: 1,
 *   maxFeePerGas: Value.fromGwei('10'),
 *   to: '0x0000000000000000000000000000000000000000',
 *   value: Value.fromEther('1'),
 * })
 *
 * const serialized = TransactionEnvelopeEip4844.serialize(envelope) // [!code focus]
 * ```
 *
 * @example
 * ### Attaching Signatures
 *
 * It is possible to attach a `signature` to the serialized Transaction Envelope.
 *
 * ```ts twoslash
 * // @noErrors
 * import { Blobs, Secp256k1, TransactionEnvelopeEip4844, Value } from 'ox'
 * import { kzg } from './kzg'
 *
 * const blobs = Blobs.from('0xdeadbeef')
 * const sidecars = Blobs.toSidecars(blobs, { kzg })
 * const blobVersionedHashes = Blobs.sidecarsToVersionedHashes(blobs)
 *
 * const envelope = TransactionEnvelopeEip4844.from({
 *   blobVersionedHashes,
 *   chainId: 1,
 *   maxFeePerBlobGas: Value.fromGwei('3'),
 *   maxFeePerGas: Value.fromGwei('10'),
 *   maxPriorityFeePerGas: Value.fromGwei('1'),
 *   to: '0x0000000000000000000000000000000000000000',
 *   value: Value.fromEther('1'),
 * })
 *
 * const signature = Secp256k1.sign({
 *   payload: TransactionEnvelopeEip4844.getSignPayload(envelope),
 *   privateKey: '0x...',
 * })
 *
 * const serialized = TransactionEnvelopeEip4844.serialize(envelope, { // [!code focus]
 *   sidecars, // [!code focus]
 *   signature, // [!code focus]
 * }) // [!code focus]
 *
 * // ... send `serialized` transaction to JSON-RPC `eth_sendRawTransaction`
 * ```
 *
 * @param envelope - The Transaction Envelope to serialize.
 * @param options - Options.
 * @returns The serialized Transaction Envelope.
 */
export declare function serialize(envelope: PartialBy<TransactionEnvelopeEip4844, 'type'>, options?: serialize.Options): Serialized;
export declare namespace serialize {
    type Options = {
        /** Signature to append to the serialized Transaction Envelope. */
        signature?: Signature.Signature | undefined;
        /** Sidecars to append to the serialized Transaction Envelope. */
        sidecars?: Blobs.BlobSidecars<Hex.Hex> | undefined;
    };
    type ErrorType = assert.ErrorType | Hex.fromNumber.ErrorType | Signature.toTuple.ErrorType | Hex.concat.ErrorType | Rlp.fromHex.ErrorType | Errors.GlobalErrorType;
}
/**
 * Converts an {@link ox#TransactionEnvelopeEip4844.TransactionEnvelopeEip4844} to an {@link ox#TransactionEnvelopeEip4844.Rpc}.
 *
 * @example
 * ```ts twoslash
 * // @noErrors
 * import { Blobs, RpcRequest, TransactionEnvelopeEip4844, Value } from 'ox'
 * import { kzg } from './kzg'
 *
 * const blobs = Blobs.from('0xdeadbeef')
 * const blobVersionedHashes = Blobs.toVersionedHashes(blobs, { kzg })
 *
 * const envelope = TransactionEnvelopeEip4844.from({
 *   blobVersionedHashes,
 *   chainId: 1,
 *   nonce: 0n,
 *   gas: 21000n,
 *   maxFeePerBlobGas: Value.fromGwei('20'),
 *   to: '0x70997970c51812dc3a010c7d01b50e0d17dc79c8',
 *   value: Value.fromEther('1'),
 * })
 *
 * const envelope_rpc = TransactionEnvelopeEip4844.toRpc(envelope) // [!code focus]
 *
 * const request = RpcRequest.from({
 *   id: 0,
 *   method: 'eth_sendTransaction',
 *   params: [envelope_rpc],
 * })
 * ```
 *
 * @param envelope - The EIP-4844 transaction envelope to convert.
 * @returns An RPC-formatted EIP-4844 transaction envelope.
 */
export declare function toRpc(envelope: Omit<TransactionEnvelopeEip4844, 'type'>): Rpc;
export declare namespace toRpc {
    type ErrorType = Signature.extract.ErrorType | Errors.GlobalErrorType;
}
/**
 * Validates a {@link ox#TransactionEnvelopeEip4844.TransactionEnvelopeEip4844}. Returns `true` if the envelope is valid, `false` otherwise.
 *
 * @example
 * ```ts twoslash
 * import { TransactionEnvelopeEip4844, Value } from 'ox'
 *
 * const valid = TransactionEnvelopeEip4844.assert({
 *   blobVersionedHashes: [],
 *   chainId: 1,
 *   to: '0x0000000000000000000000000000000000000000',
 *   value: Value.fromEther('1'),
 * })
 * // @log: false
 * ```
 *
 * @param envelope - The transaction envelope to validate.
 */
export declare function validate(envelope: PartialBy<TransactionEnvelopeEip4844, 'type'>): boolean;
export declare namespace validate {
    type ErrorType = Errors.GlobalErrorType;
}
//# sourceMappingURL=TransactionEnvelopeEip4844.d.ts.map